:020000040800F2
:1000000000300020B1060008050600080D060008B3
:10001000150600081D06000825060008000000005F
:100020000000000000000000000000002D06000895
:100030003B060008000000004906000857060008BB
:100040000107000801070008010700080107000870
:100050000107000801070008010700080107000860
:100060000107000801070008010700080107000850
:100070000107000801070008010700080107000840
:100080000107000801070008010700080107000830
:100090000107000801070008010700080107000820
:1000A0000107000801070008010700080107000810
:1000B00001070008010700080000000065060008AD
:1000C0007906000800000000000000000107000899
:1000D00000000000010700080107000801070008F0
:1000E00001070008010700080000000000000000F0
:1000F0000000000000000000000000000000000000
:1001000000000000000000000000000000000000EF
:1001100000000000000000000107000801070008BF
:1001200000000000000000000000000000000000CF
:1001300000000000000000000000000000000000BF
:10014000010700080107000800000000000000008F
:10015000000000000000000000000000000000009F
:10016000000000000000000000000000000000008F
:10017000000000000000000000000000000000007F
:08018000000000000107000867
:1001880010B5054C237833B9044B13B10448AFF3C9
:1001980000800123237010BD200000200000000013
:1001A8000041000808B5034B1BB103490348AFF3EE
:1001B800008008BD00000000240000200041000865
:1001C80080B588B000AF07F10C0300221A605A60AE
:1001D8009A60DA601A611D4B5B691C4A43F480031C
:1001E80053611A4B5B6903F48003BB60BB68174B10
:1001F8005B69164A43F400335361144B5B6903F49B
:1002080000337B607B68114B5B69104A43F48023A1
:1002180053610E4B5B6903F480233B603B6800220B
:1002280020210B4800F09EFD2023FB6001233B6149
:1002380000237B610023BB6107F10C0319460448C6
:1002480000F01EFC00BF2037BD4680BD00100240F4
:100258000004004880B500AF1B4B1C4A1A601A4BBB
:1002680040F20B225A60184B00229A60164B01226A
:10027800DA60154B00221A61134B00225A61124BA7
:1002880000229A61104B0022DA610F4B00221A6299
:100298000D4800F07FFD0346002B01D000F084F9E3
:1002A8000021094802F030FB0346002B01D000F082
:1002B8007BF90021044802F072FB0346002B01D0B1
:1002C80000F072F900BF80BD3C00002000540040DF
:1002D80080B58AB000AF786007F1140300221A6075
:1002E8005A609A60DA601A617B681B681F4A9342F9
:1002F80037D11F4B5B691E4A43F4802353611C4B63
:100308005B6903F480233B613B69C0237B61122353
:10031800BB610023FB6103233B6204237B6207F17B
:1003280014031946134800F0ABFB114BDB69104A64
:1003380043F40013D3610E4BDB6903F40013FB6035
:10034800FB68002200211F2000F019FB1F2000F08D
:1003580032FB00220021202000F011FB202000F0B9
:100368002AFB00BF2837BD4680BD00BF00540040AF
:10037800001002400004004880B582B000AF00F0D1
:10038800BDF900F04FF8FFF71BFFFFF763FF0023ED
:10039800FB7139E00023BB7130E01D4B01221A705C
:1003A800FB791C4AD35C1846BB791B4A13440122CB
:1003B800194600F095F800BF154B1B78DBB2002BEF
:1003C800FAD1164B01221A70FB79124AD35C1846EF
:1003D800FA79B97913469B0013445B000B44104A21
:1003E80013440122194600F0B1F800BF0B4B1B78EB
:1003F800DBB2002BFAD1BB790133BB71BB79092B76
:10040800CBD9FB790133FB71FB79072BC2D9BEE746
:10041800900000200C000020000000209100002027
:100428009400002080B596B000AF07F13003282271
:100438000021184603F034FE07F11C0300221A605D
:100448005A609A60DA601A613B1D00221A605A608D
:100458009A60DA601A615A6103233B634FF4A02360
:100468007B630023BB6301233B6410237B6402236B
:10047800FB644FF480333B654FF4E0137B6507F171
:100488003003184602F0D8FA0346002B01D000F0DA
:100498008BF80F23FB6102233B6200237B624FF43E
:1004A8008063BB620023FB6207F11C03022118462C
:1004B80003F000FB0346002B01D000F075F8202361
:1004C8007B6000233B613B1D184603F0C3FC0346D9
:1004D800002B01D000F068F800BF5837BD4680BD3A
:1004E80080B582B000AF03463960FB711346BB711B
:1004F800FB7999B2BB799BB23A68074800F0E6FCF1
:100508000346002B04D0054B00221A7000F04CF86B
:1005180000BF0837BD4680BD3C0000209000002089
:1005280080B483B000AF78607B681B689B6903F078
:100538000803002B02D0044B00221A7000BF0C37AE
:10054800BD465DF8047B70479000002080B582B0FE
:1005580000AF03463960FB801346BB80BB88F9882F
:100568003A68074800F04AFD0346002B04D0054BC3
:1005780000221A7000F018F800BF0837BD4680BD89
:100588003C0000209100002080B483B000AF786068
:10059800044B00221A7000BF0C37BD465DF8047B7F
:1005A800704700BF9100002080B400AF72B600BF52
:1005B80000BFFDE780B483B000AF0F4B9B690E4AC4
:1005C80043F0010393610C4B9B6903F001037B60CB
:1005D8007B68094BDB69084A43F08053D361064BBB
:1005E800DB6903F080533B603B6800BF0C37BD46B6
:1005F8005DF8047B704700BF0010024080B400AF74
:1006080000BFFDE780B400AF00BFFDE780B400AFD6
:1006180000BFFDE780B400AF00BFFDE780B400AFC6
:1006280000BFFDE780B400AF00BFBD465DF8047BA6
:10063800704780B400AF00BFBD465DF8047B7047CB
:1006480080B400AF00BFBD465DF8047B704780B53D
:1006580000AF00F099F800BF80BD000080B500AF82
:10066800024800F03BFD00BF80BD00BF3C000020F9
:1006780080B500AF024800F04BFD00BF80BD00BF51
:100688003C00002080B400AF064BD3F88830054A00
:1006980043F47003C2F8883000BFBD465DF8047BA0
:1006A800704700BF00ED00E0DFF834D0FFF7EAFF45
:1006B8000C480D490D4A002302E0D458C4500433B5
:1006C800C4188C42F9D30A4A0A4C002301E013608B
:1006D8000432A242FBD303F0EBFCFFF74DFEFEE72A
:1006E80000300020000000202000002050410008B9
:1006F80020000020E8000020FEE7000080B500AFE1
:10070800084B1B68074A43F010031360032000F0EE
:100718002BF90F2000F008F8FFF74CFF00231846CC
:1007280080BD00BF0020024080B582B000AF786075
:10073800124B1A68124B1B7819464FF47A73B3FBA5
:10074800F1F3B2FBF3F3184600F043F90346002B2C
:1007580001D001230EE07B680F2B0AD800227968AC
:100768004FF0FF3000F00BF9064A7B681360002356
:1007780000E0012318460837BD4680BD140000205C
:100788001C0000201800002080B400AF064B1B7826
:100798001A46064B1B681344044A136000BFBD4643
:1007A8005DF8047B704700BF1C000020E4000020B7
:1007B80080B400AF034B1B681846BD465DF8047B48
:1007C800704700BFE400002080B485B000AF7860B7
:1007D8007B6803F00703FB600C4BDB68BB60BA68FF
:1007E8004FF6FF031340BB60FB681A02BB68134354
:1007F80043F0BF6343F40033BB60044ABB68D36073
:1008080000BF1437BD465DF8047B704700ED00E07B
:1008180080B400AF044BDB681B0A03F007031846DB
:10082800BD465DF8047B704700ED00E080B483B0FE
:1008380000AF0346FB7197F90730002B0BDBFB7900
:1008480003F01F02074997F907305B09012000FAF6
:1008580002F241F8232000BF0C37BD465DF8047B47
:10086800704700BF00E100E080B483B000AF0346EA
:100878003960FB7197F90730002B0ADB3B68DAB265
:100888000C4997F907301201D2B20B4483F80023C0
:100898000AE03B68DAB20849FB7903F00F03043B2E
:1008A8001201D2B20B441A7600BF0C37BD465DF870
:1008B800047B704700E100E000ED00E080B489B0FF
:1008C80000AFF860B9607A60FB6803F00703FB616A
:1008D800FB69C3F10703042B28BF0423BB61FB6931
:1008E8000433062B02D9FB69033B00E000237B613C
:1008F8004FF0FF32BB6902FA03F3DA43BB681A40D0
:100908007B699A404FF0FF317B6901FA03F3D943C1
:100918007B680B40134318462437BD465DF8047BBB
:100928007047000080B582B000AF78607B68013BFB
:10093800B3F1807F01D301230FE00A4A7B68013BB2
:1009480053600F214FF0FF30FFF78EFF054B002259
:100958009A60044B07221A60002318460837BD46E0
:1009680080BD00BF10E000E080B582B000AF7860C5
:100978007868FFF729FF00BF0837BD4680BD80B5FE
:1009880086B000AF0346B9607A60FB7300237B61D1
:10099800FFF73EFF78617A68B9687869FFF78EFFDC
:1009A800024697F90F3011461846FFF75DFF00BF62
:1009B8001837BD4680BD80B582B000AF0346FB71D5
:1009C80097F907301846FFF731FF00BF0837BD46D3
:1009D80080BD80B582B000AF78607868FFF7A2FF6D
:1009E800034618460837BD4680BD80B584B000AFC1
:1009F80078600023FB737B6893F82130022B05D0C5
:100A08007B6804229A630123FB7327E07B681B68D9
:100A18001A687B681B6822F00E021A607B681B68E4
:100A28001A687B681B6822F001021A607B681A6CDE
:100A38007B68DB6B012101FA02F25A607B680122B4
:100A480083F821207B68002283F820207B685B6B79
:100A5800002B03D07B685B6B78689847FB7B184654
:100A68001037BD4680BD80B483B000AF78607B6826
:100A780093F8213018460C37BD465DF8047B704763
:100A880080B487B000AF7860396000237B614EE1A5
:100A98003B681A6801217B6901FA03F31340FB6084
:100AA800FB68002B00F040813B685B6803F00303A0
:100AB800012B05D03B685B6803F00303022B30D1A0
:100AC8007B689B683B617B695B00032202FA03F346
:100AD800DB433A6913403B613B68DA687B695B003A
:100AE80002FA03F33A6913433B617B683A699A60F7
:100AF8007B685B683B6101227B6902FA03F3DB4395
:100B08003A6913403B613B685B681B0903F00102CB
:100B18007B6902FA03F33A6913433B617B683A69DC
:100B28005A603B685B6803F00303032B17D07B68AC
:100B3800DB683B617B695B00032202FA03F3DB435A
:100B48003A6913403B613B689A687B695B0002FA2B
:100B580003F33A6913433B617B683A69DA603B689F
:100B68005B6803F00303022B23D17B69DA087B68F7
:100B7800083253F822303B617B6903F007039B007E
:100B88000F2202FA03F3DB433A6913403B613B68E7
:100B98001A697B6903F007039B0002FA03F33A69B9
:100BA80013433B617B69DA087B680832396943F88B
:100BB80022107B681B683B617B695B00032202FA99
:100BC80003F3DB433A6913403B613B685B6803F01E
:100BD80003027B695B0002FA03F33A6913433B6142
:100BE8007B683A691A603B685B6803F44033002B02
:100BF80000F09A80554B9B69544A43F00103936176
:100C0800524B9B6903F00103BB60BB68504A7B6988
:100C18009B08023352F823303B617B6903F00303DE
:100C28009B000F2202FA03F3DB433A6913403B614E
:100C38007B68B3F1904F13D07B68464A93420DD03E
:100C48007B68454A934207D07B68444A934201D166
:100C5800032306E0052304E0022302E0012300E069
:100C680000237A6902F00302920093403A69134321
:100C78003B6137497B699B0802333A6941F8232075
:100C8800374B9B683B61FB68DB433A6913403B6128
:100C98003B685B6803F48013002B03D03A69FB6858
:100CA80013433B612E4A3B6993602D4BDB683B61E4
:100CB800FB68DB433A6913403B613B685B6803F4BC
:100CC8000013002B03D03A69FB6813433B61244AA5
:100CD8003B69D360224B5B683B61FB68DB433A6945
:100CE80013403B613B685B6803F40033002B03D07F
:100CF8003A69FB6813433B61194A3B695360184BD7
:100D08001B683B61FB68DB433A6913403B613B6806
:100D18005B6803F48033002B03D03A69FB68134304
:100D28003B610F4A3B6913607B6901337B613B6818
:100D38001A687B6922FA03F3002B7FF4A9AE00BF7F
:100D480000BF1C37BD465DF8047B704700100240A9
:100D5800000001400004004800080048000C00485A
:100D68000004014080B483B000AF78600B467B80FC
:100D780013467B707B78002B03D07A887B689A6156
:100D880002E07A887B689A6200BF0C37BD465DF83E
:100D9800047B704780B582B000AF78607B68002B19
:100DA80001D101238DE07B6893F84130DBB2002B41
:100DB80006D17B68002283F840207868FFF788FA1C
:100DC8007B68242283F841207B681B681A687B684B
:100DD8001B6822F001021A607B685A687B681B68EE
:100DE80022F070621A617B681B689A687B681B68CE
:100DF80022F400429A607B68DB68012B07D17B688C
:100E08009A687B681B6842F400429A6006E07B6837
:100E18009A687B681B6842F404429A607B68DB68C6
:100E2800022B08D17B681B685A687B681B6842F4F0
:100E380000625A6007E07B681B685A687B681B6819
:100E480022F400625A607B681B685B687A681268E3
:100E580043F0007343F4004353607B681B68DA680F
:100E68007B681B6822F40042DA607B681A697B6839
:100E78005B6942EA03017B689B691A027B681B680D
:100E88000A43DA607B68D9697B681A6A7B681B68E1
:100E98000A431A607B681B681A687B681B6842F003
:100EA80001021A607B6800225A647B68202283F85A
:100EB80041207B6800221A637B68002283F8422065
:100EC800002318460837BD4680BD000080B588B0AD
:100ED80002AFF8607A601A460B467B8113463B8165
:100EE800FB6893F84130DBB2202B7CD1FB681B6890
:100EF8009B6903F40043B3F5004F01D1022373E06B
:100F0800FB6893F84030012B01D102236CE0FB68A9
:100F1800012283F84020FB68212283F84120FB68E6
:100F2800102283F84220FB6800225A64FB687A6822
:100F38005A62FB683A895A85FB682D4ADA62FB686F
:100F48002C4A5A63FB685B8D9BB2FF2B06D9FB6862
:100F5800FF221A854FF080737B6107E0FB685B8D89
:100F68009AB2FB681A854FF000737B61FB681B8D92
:100F7800002B24D0FB685B6A1A78FB681B689A62AE
:100F8800FB685B6A5A1CFB685A62FB685B8D9BB204
:100F9800013B9AB2FB685A85FB681B8D013B9AB2EC
:100FA800FB681A85FB681B8DDBB20133DAB27989DD
:100FB800114B00937B69F86801F092FB09E0FB682C
:100FC8001B8DDAB279890C4B00937B69F86801F0C4
:100FD80087FBFB68002283F840200121F86801F0B4
:100FE800B1FB002300E0022318461837BD4680BD38
:100FF8000000FFFF771200080020008080B588B04D
:1010080002AFF8607A601A460B467B8113463B8133
:10101800FB6893F84130DBB2202B53D1FB681B6887
:101028009B6903F40043B3F5004F01D102234AE062
:10103800FB6893F84030012B01D1022343E0FB68A1
:10104800012283F84020FB68222283F84120FB68B4
:10105800102283F84220FB6800225A64FB687A68F1
:101068005A62FB683A895A85FB68194ADA62FB6852
:10107800184A5A63FB685B8D9BB2FF2B06D9FB6845
:1010880001221A854FF080737B6107E0FB685B8D56
:101098009AB2FB681A854FF000737B61FB681B8D61
:1010A800DAB279890C4B00937B69F86801F018FB78
:1010B800FB68002283F840200221F86801F042FB17
:1010C800002300E0022318461837BD4680BD00BF44
:1010D8000000FFFF771200080024008080B584B06C
:1010E80000AF78607B681B689B69FB607B681B6846
:1010F8001B68BB607B685B6B002B05D07B685B6BF8
:10110800BA68F9687868984700BF1037BD4680BD4F
:1011180080B586B000AF78607B681B689B697B618F
:101128007B681B681B683B617B6903F48073002B39
:101138000FD03B6903F08003002B0AD07B685B6CFF
:1011480043F001027B685A647B681B684FF4807225
:10115800DA617B6903F48063002B0FD03B6903F0ED
:101168008003002B0AD07B685B6C43F008027B6825
:101178005A647B681B684FF48062DA617B6903F408
:101188000073002B0FD03B6903F08003002B0AD0BB
:101198007B685B6C43F002027B685A647B681B685F
:1011A8004FF40072DA617B685B6CFB60FB6803F0EC
:1011B8000B03002B03D0F968786801F037F900BFFA
:1011C8001837BD4680BD80B483B000AF786000BFDB
:1011D8000C37BD465DF8047B704780B483B000AF20
:1011E800786000BF0C37BD465DF8047B704780B45B
:1011F80083B000AF78600B46FB7013463B8000BF9E
:101208000C37BD465DF8047B704780B483B000AFEF
:10121800786000BF0C37BD465DF8047B704780B42A
:1012280083B000AF786000BF0C37BD465DF8047B23
:10123800704780B483B000AF786000BF0C37BD46FC
:101248005DF8047B704780B483B000AF786000BF5E
:101258000C37BD465DF8047B704780B483B000AF9F
:10126800786000BF0C37BD465DF8047B704780B5D9
:1012780088B002AFF860B9607A60BB687B61FB68D0
:1012880093F84030012B01D1022321E1FB680122B0
:1012980083F840207B6903F01003002B12D07B6891
:1012A80003F01003002B0DD0FB681B681022DA61D5
:1012B800FB685B6C43F00402FB685A64F86801F051
:1012C800CCF9F2E07B6903F00403002B22D07B68A1
:1012D80003F00403002B1DD07B6923F004037B611A
:1012E800FB681B685A6AFB685B6AD2B21A70FB68B3
:1012F8005B6A5A1CFB685A62FB681B8D013B9AB2F9
:10130800FB681A85FB685B8D9BB2013B9AB2FB6850
:101318005A85CAE07B6903F04003002B28D17B691A
:1013280003F00203002B23D07B6803F00203002B99
:101338001ED0FB685B8D9BB2002B00F0B680FB686B
:101348005B6A1A78FB681B689A62FB685B6A5A1CBE
:10135800FB685A62FB681B8D013B9AB2FB681A85D1
:10136800FB685B8D9BB2013B9AB2FB685A859CE097
:101378007B6903F08003002B6AD07B6803F040038D
:10138800002B65D0FB685B8D9BB2002B4ED0FB68B1
:101398001B8D002B4AD1FB681B685B689BB2C3F3AB
:1013A80009037B82FB685B8D9BB2FF2B1CD9FB6812
:1013B8001B689B691B0CDBB203F00103DBB2012B3A
:1013C80003D1FB6801221A8502E0FB68FF221A8517
:1013D800FB681B8DDAB2798A002300934FF0807383
:1013E800F86801F07DF932E0FB685B8D9AB2FB6822
:1013F8001A85FB68DB6A13F5803F0BD0FB681B8DF1
:10140800DAB2FB68DB6A798A00200090F86801F09C
:1014180067F91CE0FB681B8DDAB2798A0023009318
:101428004FF00073F86801F05BF910E0FB681B6887
:101438005B6803F00073B3F1007F03D0F86800F035
:10144800DCFC32E04021F86800F0F0FF2DE02CE0F1
:101458007B6903F04003002B27D07B6803F040032F
:10146800002B22D0FB685B8D9BB2002B19D1FB6847
:101478001B685B6803F00073B3F1007F15D0FB684D
:10148800DB6A13F5803F08D1FB681B685A68FB6864
:101498001B6842F480425A6007E0F86800F0ADFC2F
:1014A80003E04021F86800F0C1FF7B6903F02003E6
:1014B800002B08D07B6803F02003002B03D0796948
:1014C800F86800F033FDFB68002283F84020002311
:1014D80018461837BD4680BD80B586B000AFF860A5
:1014E800B9607A60FB68DB6A7B61BB683B61FB685B
:1014F80093F84030012B01D10223E2E0FB6801227E
:1015080083F840203B6903F02003002B09D07B6857
:1015180003F02003002B04D03969F86800F0CEFDF1
:10152800CAE03B6903F01003002B4BD07B6803F043
:101538001003002B46D0FB685B8D9BB2002B28D193
:10154800FB6893F84130DBB2282B08D17B69B3F1F3
:10155800007F04D13969F86800F014FF31E0FB68B6
:1015680093F84130DBB2292B0ED17B6913F5803F0C
:101578000AD0FB681B681022DA61F86801F06DF880
:10158800F86800F077FC1CE0FB681B681022DA6141
:101598008FE0FB681B681022DA61FB685B6C43F024
:1015A8000402FB685A647B69002B03D07B69B3F1A2
:1015B800807F7ED1FB685B6C1946F86800F036FFC7
:1015C80077E076E03B6903F00403002B2FD07B68BB
:1015D80003F00403002B2AD0FB685B8D9BB2002B21
:1015E80018D0FB681B685A6AFB685B6AD2B21A702B
:1015F800FB685B6A5A1CFB685A62FB681B8D013BDF
:101608009AB2FB681A85FB685B8D9BB2013B9AB264
:10161800FB685A85FB685B8D9BB2002B4BD17B69BD
:1016280013F5803F47D0F86800F024FC43E03B699D
:1016380003F00803002B09D07B6803F00803002B94
:1016480004D03969F86800F054FB35E03B6903F0D1
:101658000203002B30D07B6803F00203002B2BD051
:10166800FB685B8D9BB2002B18D0FB685B6A1A780D
:10167800FB681B689A62FB685B6A5A1CFB685A62C3
:10168800FB685B8D9BB2013B9AB2FB685A85FB688D
:101698001B8D013B9AB2FB681A850DE07B69B3F19B
:1016A800807F02D07B69002B06D1F86800F0E2FB4E
:1016B80002E000BF00E000BFFB68002283F8402082
:1016C800002318461837BD4680BD80B588B002AFE4
:1016D800F860B9607A60FB6893F84030012B01D15B
:1016E8000223E7E0FB68012283F84020BB6803F08F
:1016F8001003002B16D07B6803F01003002B11D0C9
:10170800FB681B681022DA61FB685B6C43F004021B
:10171800FB685A642021F86801F014F8F86800F0B2
:101728009CFFC2E0BB6803F08003002B7FD07B687E
:1017380003F04003002B7AD0FB681B681A68FB682B
:101748001B6822F040021A60FB685B8D9BB2002B7D
:101758005CD0FB681B685B689BB2C3F309037B82A0
:10176800FB685B8D9BB2FF2B14D9FB681B689B69D8
:101778001B0CDBB203F00103DBB2012B03D1FB68C6
:1017880001221A8502E0FB68FF221A854FF0807358
:101798007B6110E0FB685B8D9AB2FB681A85FB6879
:1017A800DB6A13F5803F03D0FB68DB6A7B6102E0EC
:1017B8004FF000737B61FB681B8DDAB2798A0023D6
:1017C80000937B69F86800F08BFFFB685B8D9AB229
:1017D800FB681B8DD31A9AB2FB685A85FB6893F88D
:1017E8004130DBB2222B08D1FB681B681A68FB6802
:1017F8001B6842F400421A6057E0FB681B681A68CD
:10180800FB681B6842F480421A604EE0FB681B6864
:101818005B6803F00073B3F1007F03D0F86800F051
:10182800ECFA42E04021F86800F000FE3DE0BB68B9
:1018380003F04003002B28D07B6803F04003002B03
:1018480023D0FB685B8D9BB2002B19D1FB681B680A
:101858005B6803F00073B3F1007F25D0FB68DB6A97
:1018680013F5803F08D1FB681B685A68FB681B6842
:1018780042F480425A6017E0F86800F0BEFA13E0BC
:101888004021F86800F0D2FD0EE0BB6803F02003A9
:10189800002B0AD07B6803F02003002B05D0B96821
:1018A800F86800F043FB00E000BFFB68002283F803
:1018B8004020002318461837BD4680BD80B588B043
:1018C80002AFF860B9607A60904B7B61FB6893F86F
:1018D8004030012B01D102232FE1FB68012283F85C
:1018E8004020BB6803F01003002B16D07B6803F080
:1018F8001003002B11D0FB681B681022DA61FB680B
:101908005B6C43F00402FB685A642021F86800F01D
:1019180019FFF86800F0A1FE0AE1BB6803F00203B2
:10192800002B0ED07B6803F00203002B09D0FB6864
:101938001B68FA68126D9A62FB684FF0FF321A65ED
:10194800F6E0BB6803F08003002B6DD07B6803F0E2
:101958004003002B68D00121F86800F077FF1021C0
:10196800F86800F0EFFEFB685B8D9BB2002B56D049
:10197800FB685B8D9BB2FF2B1ED9FB681B689B69BC
:101988001B0CDBB203F00103DBB2012B03D1FB68B4
:1019980001221A8502E0FB68FF221A85FB68DB6CCE
:1019A80099B2FB681B8DDAB2002300934FF0807365
:1019B800F86800F095FE11E0FB685B8D9AB2FB6851
:1019C8001A85FB68DB6C99B2FB681B8DDAB20023C1
:1019D80000934FF00073F86800F082FEFB685B8D9F
:1019E8009AB2FB681B8DD31A9AB2FB685A85FB68BA
:1019F80093F84130DBB2222B08D1FB681B681A68C8
:101A0800FB681B6842F400421A6091E0FB681B689F
:101A18001A68FB681B6842F480421A6088E040211B
:101A2800F86800F003FD83E0BB6803F04003002B77
:101A380070D07B6803F04003002B6BD00121F8685D
:101A480000F004FF1021F86800F07CFEFB6893F8B2
:101A58004130DBB2222B01D12D4B7B61FB685B8DC2
:101A68009BB2FF2B1ED9FB681B689B691B0CDBB262
:101A780003F00103DBB2012B03D1FB6801221A85B5
:101A880002E0FB68FF221A85FB68DB6C99B2FB68F1
:101A98001B8DDAB27B6900934FF08073F86800F011
:101AA8001FFE11E0FB685B8D9AB2FB681A85FB6824
:101AB800DB6C99B2FB681B8DDAB27B6900934FF03F
:101AC8000073F86800F00CFEFB685B8D9AB2FB6847
:101AD8001B8DD31A9AB2FB685A85FB6893F841307C
:101AE800DBB2222B08D1FB681B681A68FB681B68ED
:101AF80042F400421A601BE0FB681B681A68FB6826
:101B08001B6842F480421A6012E000BF0020008087
:101B180000240080BB6803F02003002B08D07B68FA
:101B280003F02003002B03D0B968F86800F0FEF931
:101B3800FB68002283F84020002318461837BD466A
:101B480080BD00BF80B588B000AFF860B9607A602A
:101B5800FB68DB6ABB610023FB61FB6893F84030DC
:101B6800012B01D10223C0E0FB68012283F8402049
:101B7800BB6803F02003002B09D07B6803F0200327
:101B8800002B04D0B968F86800F098FAA8E0BB68A0
:101B980003F01003002B00F095807B6803F010031E
:101BA800002B00F08F807B6803F48043002B04D166
:101BB8007B6803F40043002B7DD0FB68DB6B002BB4
:101BC8000CD07B6803F40043002B07D0FB68DB6B69
:101BD8001B685B68002B01D10123FB61FB689B6BD1
:101BE800002B0CD07B6803F48043002B07D0FB68E4
:101BF8009B6B1B685B68002B01D10123FB61FB69B0
:101C0800012B28D1FB6893F84130DBB2282B08D18F
:101C1800BB69B3F1007F04D1B968F86800F0B2FB82
:101C280048E0FB6893F84130DBB2292B0ED1BB6941
:101C380013F5803F0AD0FB681B681022DA61F86848
:101C480000F00BFDF86800F015F933E0FB681B683D
:101C58001022DA6134E0FB681B681022DA61FB6845
:101C68005B6C43F00402FB685A64FB6893F84130EC
:101C7800FB75BB69002B03D0BB69B3F1807F1FD113
:101C8800FB7D212B02D0FB7D292B03D1FB68212270
:101C98001A6308E0FB7D222B02D0FB7D2A2B02D1A0
:101CA800FB6822221A63FB685B6C1946F86800F02F
:101CB800BDFB05E004E0FB681B681022DA610FE059
:101CC80000BF0DE0BB6803F00803002B08D07B6859
:101CD80003F00803002B03D0B968F86800F009F88E
:101CE800FB68002283F84020002318462037BD46B1
:101CF80080BD80B584B000AF786039607B6893F8A8
:101D08004130DBB203F02803282B6AD17B681B68BB
:101D18009B691B0CDBB203F00103FB737B681B6838
:101D28009B691B0C9BB203F0FE03BB817B681B689D
:101D38009B689BB2C3F309037B817B681B68DB68E4
:101D48009BB203F0FE033B817B68DB68022B38D132
:101D58007B89DB099AB2BB8953409BB203F0060327
:101D6800002B1CD17B89BB817B689B6C5A1C7B68D0
:101D78009A647B689B6C022B3BD17B6800229A6437
:101D88007B681B680822DA617B68002283F84020A0
:101D9800BA89FB7B19467868FFF729FA29E03B895D
:101DA800BB814FF40041786800F050FD7B68002249
:101DB80083F84020BA89FB7B19467868FFF717FA41
:101DC80017E04FF40041786800F040FD7B6800227E
:101DD80083F84020BA89FB7B19467868FFF707FA31
:101DE80007E07B681B680822DA617B68002283F8B9
:101DF800402000BF1037BD4680BD80B582B000AF1F
:101E080078607B68002283F842207B6893F8413031
:101E1800DBB2212B15D17B68202283F841207B6817
:101E280011221A637B6800225A630121786800F046
:101E38000DFD7B68002283F840207868FEF770FB70
:101E480014E07B68202283F841207B6812221A6301
:101E58007B6800225A630221786800F0F7FC7B68EF
:101E6800002283F840207868FEF78EFB00BF083711
:101E7800BD4680BD80B584B000AF78607B681B68C4
:101E88001B68FB607B68002283F84220FB6803F430
:101E98008043002B08D07B681B681A687B681B6826
:101EA80022F480421A600CE0FB6803F40043002B24
:101EB80007D07B681B681A687B681B6822F400429D
:101EC8001A607B6893F84130DBB2292B12D17B680A
:101ED800282283F841207B6821221A63012178682F
:101EE80000F0B4FC7B68002283F840207868FFF794
:101EF8006AF917E07B6893F84130DBB22A2B11D1DD
:101F08007B68282283F841207B6822221A630221F9
:101F1800786800F09BFC7B68002283F84020786892
:101F2800FFF75BF900BF1037BD4680BD80B586B0AE
:101F380000AF786039603B687B617B681B68202252
:101F4800DA617B6893F84130DBB2212B07D101219C
:101F5800786800F07BFC7B6811221A630CE07B68D0
:101F680093F84130DBB2222B06D10221786800F0C9
:101F78006DFC7B6812221A637B681B6859687B6852
:101F88001A684C4B0B4053607B6800225A637B688D
:101F9800494ADA627B6903F01003002B09D07B6899
:101FA8001B681022DA617B685B6C43F004027B6873
:101FB8005A647B6893F84130DBB2602B0AD17B69A5
:101FC80003F00403002B05D07B681B685B6ADBB257
:101FD800FB60FB68786800F040FB7B685B6C3B61EA
:101FE8007B6893F84130DBB2602B02D03B69002B51
:101FF80006D07B685B6C1946786800F017FA54E0E5
:102008007B6893F84130DBB2212B24D17B682022F6
:1020180083F841207B6800221A637B6893F842307A
:10202800DBB2402B0BD17B68002283F842207B680F
:10203800002283F840207868FFF7F1F835E07B68E4
:10204800002283F842207B68002283F840207868C9
:10205800FEF766FA29E07B6893F84130DBB2222B61
:1020680023D17B68202283F841207B6800221A63F1
:102078007B6893F84230DBB2402B0BD17B6800229F
:1020880083F842207B68002283F840207868FFF7B5
:10209800D0F80AE07B68002283F842207B6800229F
:1020A80083F840207868FEF76FFA00BF1837BD46FE
:1020B80080BD00BF00E800FE0000FFFF80B586B0CD
:1020C80000AF786039607B681B681B683B613B68C0
:1020D8007B617B68DB6AFB607B6893F84130FB724D
:1020E8007B681B682022DA61FB7A212B02D0FB7AFD
:1020F800292B08D148F20101786800F0A7FB7B681A
:1021080021221A6319E0FB7A222B02D0FB7A2A2BB0
:1021180008D148F20201786800F098FB7B68222217
:102128001A630AE0FB7A282B07D148F20301786882
:1021380000F08CFB7B6800221A637B681B685A6876
:102148007B681B6842F400425A607B681B685968C8
:102158007B681A68894B0B405360786800F07DFAF9
:102168003B6903F48043002B13D07B681B681A6813
:102178007B681B6822F480421A607B689B6B002B8B
:102188001FD07B689B6B1B685B689AB27B685A851B
:1021980017E03B6903F40043002B12D07B681B68EF
:1021A8001A687B681B6822F400421A607B68DB6B44
:1021B800002B06D07B68DB6B1B685B689AB27B6878
:1021C8005A857B6903F00403002B20D07B6923F038
:1021D80004037B617B681B685A6A7B685B6AD2B2BE
:1021E8001A707B685B6A5A1C7B685A627B681B8D15
:1021F800002B0CD07B681B8D013B9AB27B681A853B
:102208007B685B8D9BB2013B9AB27B685A857B6881
:102218005B8D9BB2002B05D07B685B6C43F004029E
:102228007B685A647B6903F01003002B49D03B6933
:1022380003F01003002B44D07B685B8D9BB2002B0E
:1022480028D17B6893F84130DBB2282B08D1FB6892
:10225800B3F1007F04D17969786800F093F830E031
:102268007B6893F84130DBB2292B0ED1FB6813F55C
:10227800803F0AD07B681B681022DA61786800F01A
:10228800ECF97868FFF7F6FD1BE07B681B68102205
:10229800DA6116E07B681B681022DA617B685B6C88
:1022A80043F004027B685A64FB68002B03D0FB6888
:1022B800B3F1807F05D17B685B6C1946786800F0C4
:1022C800B5F87B68002283F842207B6800225A63B5
:1022D8007B685B6C002B10D07B685B6C1946786858
:1022E80000F0A4F87B6893F84130DBB2282B41D189
:1022F8007969786800F046F83CE07B68DB6A13F59A
:10230800803F14D07868FFF7B5FD7B681C4ADA6215
:102318007B68202283F841207B6800221A637B684F
:10232800002283F840207868FEF76FFF22E07B6880
:1023380093F84130DBB2222B0ED17B68202283F840
:1023480041207B6800221A637B68002283F84020C2
:102358007868FEF742FF0DE07B68202283F8412071
:102368007B6800221A637B68002283F84020786823
:10237800FEF729FF00BF1837BD4680BD00E800FE04
:102388000000FFFF80B582B000AF786039607B68DD
:10239800254ADA627B6800221A637B68202283F868
:1023A80041207B68002283F842207B6800225A6320
:1023B8003B6803F00403002B22D07B681B685A6A31
:1023C8007B685B6AD2B21A707B685B6A5A1C7B684E
:1023D8005A627B681B8D002B12D07B681B8D013BDA
:1023E8009AB27B681A857B685B8D9BB2013B9AB277
:1023F8007B685A857B685B6C43F004027B685A648F
:1024080048F20301786800F021FA7B681B68102203
:10241800DA617B68002283F840207868FEF7F5FED1
:1024280000BF0837BD4680BD0000FFFF80B584B0FF
:1024380000AF786039607B6893F84130FB737B6844
:10244800002283F842207B686D4ADA627B680022AA
:102458005A857B685A6C3B681A437B685A64FB7BD5
:10246800282B05D0FB7B292B02D0FB7B2A2B0BD1F9
:102478000321786800F0EAF97B68282283F8412074
:102488007B68604A5A6330E048F20301786800F0DC
:10249800DDF9786800F0E1F87B6893F84130DBB249
:1024A800602B1FD07B68202283F841207B681B6843
:1024B8009B6903F02003202B14D17B681B689B6960
:1024C80003F01003102B09D17B681B681022DA6116
:1024D8007B685B6C43F004027B685A647B681B680A
:1024E8002022DA617B6800225A637B681B6BBB6021
:1024F8007B689B6B002B39D0BB68112B02D0BB6863
:10250800212B33D17B681B681B6803F48043B3F528
:10251800804F07D17B681B681A687B681B6822F4A8
:1025280080421A607B689B6B1846FEF79CFA03464C
:10253800012B17D07B689B6B334A5A637B68002258
:1025480083F840207B689B6B1846FEF74EFA0346DB
:10255800002B4DD07B689B6B5B6B7A68926B104647
:10256800984745E0786800F051F841E07B68DB6BFC
:10257800002B39D0BB68122B02D0BB68222B33D179
:102588007B681B681B6803F40043B3F5004F07D151
:102598007B681B681A687B681B6822F400421A6013
:1025A8007B68DB6B1846FEF75EFA0346012B17D0F3
:1025B8007B68DB6B144A5A637B68002283F84020EF
:1025C8007B68DB6B1846FEF710FA0346002B11D028
:1025D8007B68DB6B5B6B7A68D26B1046984709E0C7
:1025E800786800F013F805E0786800F00FF802E06A
:1025F80000BF00E000BF00BF1037BD4680BD00BF70
:102608000000FFFFE1140008AB26000880B582B087
:1026180000AF78607B6893F84130DBB2602B0ED155
:102628007B68202283F841207B6800221A637B683C
:10263800002283F840207868FEF70FFE09E07B68E7
:1026480000221A637B68002283F840207868FEF72E
:10265800FAFD00BF0837BD4680BD80B483B000AF27
:1026680078607B681B689B6903F00203022B03D127
:102678007B681B6800229A627B681B689B6903F071
:102688000103012B07D07B681B689A697B681B686C
:1026980042F001029A6100BF0C37BD465DF8047B29
:1026A800704780B584B000AF78607B685B6AFB6078
:1026B800FB689B6B002B03D0FB689B6B00225A6363
:1026C800FB68DB6B002B03D0FB68DB6B00225A63D3
:1026D800F868FFF79BFF00BF1037BD4680BD0000BC
:1026E80080B487B000AFF8607B600B467B811346EF
:1026F8007B727B89C3F309027B7A1B0403F47F0393
:102708001A437B681A433B6A134323F000437B61F7
:10271800FB681B685A683B6A5B0D03F48061084BD1
:102728000B43DB4302EA0301FB681B687A690A432F
:102738005A6000BF1C37BD465DF8047B704700BF78
:10274800FF63FF0380B485B000AF78600B467B80E1
:102758000023FB607B685B6B394A934232D07B680D
:102768005B6B384A93422DD07B685B6B364A934249
:1027780028D0B7F90230002B03DAFB6843F0B8031E
:10278800FB607B8803F00103002B03D0FB6843F058
:10279800F203FB607B8803F00203002B03D0FB6885
:1027A80043F0F403FB607B88102B03D1FB6843F0F4
:1027B8009003FB607B88202B33D1FB6843F0200318
:1027C800FB602EE0B7F90230002B03DAFB6843F018
:1027D800B803FB607B8803F00103002B03D0FB6880
:1027E80043F0F203FB607B8803F00203002B03D065
:1027F800FB6843F0F403FB607B88102B03D1FB6874
:1028080043F09003FB607B88202B03D1FB6843F0E7
:102818006003FB607B88402B03D1FB6843F04003D7
:10282800FB607B681B6819687B681B68FA680A4349
:102838001A6000BF1437BD465DF8047B704700BFBF
:10284800D31600084D1B0008C518000880B485B0D1
:1028580000AF78600B467B800023FB607B8803F029
:102868000103002B0FD0FB6843F04203FB607B6839
:1028780093F84130DBB203F02803282B03D0FB6820
:1028880043F0B003FB607B8803F00203002B0FD0FA
:10289800FB6843F04403FB607B6893F84130DBB28C
:1028A80003F02803282B03D0FB6843F0B003FB6038
:1028B800B7F90230002B03DAFB6843F0B803FB607A
:1028C8007B88102B03D1FB6843F09003FB607B8867
:1028D800202B03D1FB6843F02003FB607B88402B4F
:1028E80003D1FB6843F04003FB607B681B681968F1
:1028F800FB68DA437B681B680A401A6000BF14371C
:10290800BD465DF8047B704780B483B000AF786043
:1029180039607B6893F84130DBB2202B38D17B6873
:1029280093F84030012B01D1022332E07B68012269
:1029380083F840207B68242283F841207B681B6849
:102948001A687B681B6822F001021A607B681B68A2
:102958001A687B681B6822F480521A607B681B68BF
:1029680019687B681B683A680A431A607B681B68A9
:102978001A687B681B6842F001021A607B68202293
:1029880083F841207B68002283F84020002300E080
:10299800022318460C37BD465DF8047B704780B4A7
:1029A80085B000AF786039607B6893F84130DBB25E
:1029B800202B39D17B6893F84030012B01D10223B9
:1029C80033E07B68012283F840207B68242283F867
:1029D80041207B681B681A687B681B6822F001022B
:1029E8001A607B681B681B68FB60FB6823F47063D4
:1029F800FB603B681B02FA681343FB607B681B683B
:102A0800FA681A607B681B681A687B681B6842F062
:102A180001021A607B68202283F841207B6800222B
:102A280083F84020002300E0022318461437BD46EF
:102A38005DF8047B7047000080B5ADF5007D00AF00
:102A480007F50073A3F5FE73186007F50073A3F587
:102A5800FE731B68002B02D1012301F023B807F590
:102A68000073A3F5FE731B681B6803F00103002BBA
:102A780000F07D81BC4B5B6803F00C03042B0CD089
:102A8800B94B5B6803F00C03082B5CD1B64B5B6851
:102A980003F48033B3F5803F55D14FF40033C7F8C2
:102AA800F031D7F8F03193FAA3F3C7F8EC31D7F83F
:102AB800EC31B3FA83F3DBB25B09DBB243F0010319
:102AC800DBB2012B02D1A84B1B6815E04FF4003391
:102AD800C7F8E831D7F8E83193FAA3F3C7F8E43137
:102AE8004FF40033C7F8E031D7F8E03193FAA3F395
:102AF800C7F8DC319C4B5B6A4FF40032C7F8D82129
:102B0800D7F8D82192FAA2F2C7F8D421D7F8D4215D
:102B1800B2FA82F2D2B242F02002D2B202F01F021E
:102B2800012101FA02F21340002B00F01F8107F582
:102B38000073A3F5FE731B685B68002B40F01681D9
:102B4800012300F0AFBF07F50073A3F5FE731B6800
:102B58005B68B3F5803F06D1834B1B68824A43F418
:102B68008033136036E007F50073A3F5FE731B6826
:102B78005B68002B0CD17C4B1B687B4A23F48033A9
:102B88001360794B1B68784A23F48023136021E093
:102B980007F50073A3F5FE731B685B68B3F5A02FF8
:102BA8000CD1714B1B68704A43F4802313606E4B41
:102BB8001B686D4A43F4803313600BE06A4B1B6853
:102BC800694A23F480331360674B1B68664A23F411
:102BD80080231360644BDB6A23F00F0207F5007350
:102BE800A3F5FE731B689B685F491343CB6207F527
:102BF8000073A3F5FE731B685B68002B59D0FDF7C3
:102C0800D7FDC7F8F8010AE0FDF7D2FD0246D7F86C
:102C1800F831D31A642B02D9032300F043BF4FF4D1
:102C28000033C7F8D031D7F8D03193FAA3F3C7F8F7
:102C3800CC31D7F8CC31B3FA83F3DBB25B09DBB222
:102C480043F00103DBB2012B02D1474B1B6815E0AF
:102C58004FF40033C7F8C831D7F8C83193FAA3F353
:102C6800C7F8C4314FF40033C7F8C031D7F8C031C2
:102C780093FAA3F3C7F8BC313B4B5B6A4FF40032BD
:102C8800C7F8B821D7F8B82192FAA2F2C7F8B42148
:102C9800D7F8B421B2FA82F2D2B242F02002D2B20C
:102CA80002F01F02012101FA02F21340002BABD0FF
:102CB8005DE0FDF77DFDC7F8F8010AE0FDF778FD56
:102CC8000246D7F8F831D31A642B02D9032300F04F
:102CD800E9BE4FF40033C7F8B031D7F8B03193FAF2
:102CE800A3F3C7F8AC31D7F8AC31B3FA83F3DBB24E
:102CF8005B09DBB243F00103DBB2012B02D11A4BB3
:102D08001B6815E04FF40033C7F8A831D7F8A8318D
:102D180093FAA3F3C7F8A4314FF40033C7F8A031EE
:102D2800D7F8A03193FAA3F3C7F89C310E4B5B6A2E
:102D38004FF40032C7F89821D7F8982192FAA2F2F6
:102D4800C7F89421D7F89421B2FA82F2D2B242F0AD
:102D58002002D2B202F01F02012101FA02F213404E
:102D6800002BABD103E000BF0010024000BF07F505
:102D78000073A3F5FE731B681B6803F00203002BA6
:102D880000F07D81A64B5B6803F00C03002B0BD091
:102D9800A34B5B6803F00C03082B72D1A04B5B6854
:102DA80003F48033002B6CD10223C7F89031D7F895
:102DB800903193FAA3F3C7F88C31D7F88C31B3FA72
:102DC80083F3DBB25B09DBB243F00103DBB2012B17
:102DD80002D1934B1B6813E00223C7F88831D7F858
:102DE800883193FAA3F3C7F884310223C7F88031F6
:102DF800D7F8803193FAA3F3C7F87C31884B5B6A24
:102E08000222C7F87821D7F8782192FAA2F2C7F8F7
:102E18007421D7F87421B2FA82F2D2B242F02002B9
:102E2800D2B202F01F02012101FA02F21340002B74
:102E38000AD007F50073A3F5FE731B681B69012B05
:102E480002D0012300F02EBE754B1B6823F0F80258
:102E580007F50073A3F5FE731B685B69F821C7F8D3
:102E68007011D7F8701191FAA1F1C7F86C11D7F861
:102E78006C11B1FA81F1C9B28B40694913430B60F7
:102E8800FDE007F50073A3F5FE731B681B69002BB3
:102E980000F088800123C7F86831D7F8683193FAC1
:102EA800A3F3C7F86431D7F86431B3FA83F3DBB21C
:102EB80003F1845303F584139B001A46012313601E
:102EC800FDF776FCC7F8F8010AE0FDF771FC024649
:102ED800D7F8F831D31A022B02D9032300F0E2BD48
:102EE8000223C7F86031D7F8603193FAA3F3C7F823
:102EF8005C31D7F85C31B3FA83F3DBB25B09DBB240
:102F080043F00103DBB2012B02D1454B1B6813E0F0
:102F18000223C7F85831D7F8583193FAA3F3C7F802
:102F280054310223C7F85031D7F8503193FAA3F33C
:102F3800C7F84C313A4B5B6A0222C7F84821D7F8E8
:102F4800482192FAA2F2C7F84421D7F84421B2FAEC
:102F580082F2D2B242F02002D2B202F01F02012164
:102F680001FA02F21340002BAFD02D4B1B6823F05F
:102F7800F80207F50073A3F5FE731B685B69F82177
:102F8800C7F84011D7F8401191FAA1F1C7F83C11E0
:102F9800D7F83C11B1FA81F1C9B28B4020491343EB
:102FA8000B606CE00123C7F83831D7F8383193FA51
:102FB800A3F3C7F83431D7F83431B3FA83F3DBB26B
:102FC80003F1845303F584139B001A46002313600E
:102FD800FDF7EEFBC7F8F8010AE0FDF7E9FB02464A
:102FE800D7F8F831D31A022B02D9032300F05ABDBF
:102FF8000223C7F83031D7F8303193FAA3F3C7F872
:103008002C31D7F82C31B3FA83F3DBB25B09DBB28E
:1030180043F00103DBB2012B04D1014B1B6815E01F
:10302800001002400223C7F82831D7F8283193FA54
:10303800A3F3C7F824310223C7F82031D7F8203189
:1030480093FAA3F3C7F81C31C84B5B6A0222C7F88E
:103058001821D7F8182192FAA2F2C7F81421D7F844
:103068001421B2FA82F2D2B242F02002D2B202F0B5
:103078001F02012101FA02F21340002BADD107F51E
:103088000073A3F5FE731B681B6803F00803002B8D
:1030980000F0108107F50073A3F5FE731B689B69A8
:1030A800002B79D00123C7F81031D7F8103193FAE3
:1030B800A3F3C7F80C31D7F80C31B3FA83F3DBB2BA
:1030C8001A46AB4B13449B001A4601231360FDF7C5
:1030D8006FFBC7F8F8010AE0FDF76AFB0246D7F86C
:1030E800F831D31A022B02D9032300F0DBBC0223E8
:1030F800C7F80831D7F8083193FAA3F3C7F80431B1
:1031080007F50073A3F5807302221A6007F50073B0
:10311800A3F580731B6893FAA3F207F50073A3F570
:1031280082731A6007F50073A3F5847302221A608C
:1031380007F50073A3F584731B6893FAA3F207F5E8
:103148000073A3F586731A60884B5A6A07F50073F3
:10315800A3F588730221196007F50073A3F5887336
:103168001B6893FAA3F107F50073A3F58A73196036
:1031780007F50073A3F58A731B68B3FA83F3DBB210
:1031880043F06003DBB203F01F03012101FA03F3EC
:103198001340002BA0D08DE007F50073A3F58C73C6
:1031A80001221A6007F50073A3F58C731B6893FA64
:1031B800A3F207F50073A3F58E731A6007F5007381
:1031C800A3F58E731B68B3FA83F3DBB21A46684B18
:1031D80013449B001A4600231360FDF7E9FAC7F869
:1031E800F8010AE0FDF7E4FA0246D7F8F831D31AF5
:1031F800022B02D9032300F055BC07F50073A3F591
:10320800907302221A6007F50073A3F590731B6888
:1032180093FAA3F207F50073A3F592731A6007F502
:103228000073A3F5947302221A6007F50073A3F5DF
:1032380094731B6893FAA3F207F50073A3F59673CA
:103248001A6007F50073A3F5987302221A6007F550
:103258000073A3F598731B6893FAA3F207F500733C
:10326800A3F59A731A60414B5A6A07F50073A3F5E0
:103278009C730221196007F50073A3F59C731B6802
:1032880093FAA3F107F50073A3F59E73196007F588
:103298000073A3F59E731B68B3FA83F3DBB243F0A4
:1032A8006003DBB203F01F03012101FA03F31340AB
:1032B800002B97D107F50073A3F5FE731B681B68F5
:1032C80003F00403002B00F0A181002387F8FF31ED
:1032D800264BDB6903F08053002B16D1234BDB69A7
:1032E800224A43F08053D361204BDB6903F08052BC
:1032F80007F50073A3F5FC731A6007F50073A3F5CF
:10330800FC731B68012387F8FF311A4B1B6803F411
:103318008073002B1AD1174B1B68164A43F480732D
:103328001360FDF745FAC7F8F80109E0FDF740FA20
:103338000246D7F8F831D31A642B01D90323B1E335
:103348000C4B1B6803F48073002BEFD007F5007358
:10335800A3F5FE731B68DB68012B0DD1034B1B6AB9
:10336800024A43F0010313623CE000BF0010024030
:10337800208190100070004007F50073A3F5FE73DC
:103388001B68DB68002B0CD1C14B1B6AC04A23F0B9
:1033980001031362BE4B1B6ABD4A23F00403136288
:1033A80020E007F50073A3F5FE731B68DB68052BA7
:1033B8000CD1B74B1B6AB64A43F004031362B44BF3
:1033C8001B6AB34A43F0010313620BE0B04B1B6A5C
:1033D800AF4A23F001031362AD4B1B6AAC4A23F0DA
:1033E8000403136207F50073A3F5FE731B68DB681B
:1033F800002B00F08180FDF7DBF9C7F8F8010BE03E
:10340800FDF7D6F90246D7F8F831D31A41F28832D7
:10341800934201D9032345E307F50073A3F5A0738D
:1034280002221A6007F50073A3F5A0731B6893FACC
:10343800A3F207F50073A3F5A2731A6007F50073EA
:10344800A3F5A47302221A6007F50073A3F5A47309
:103458001B6893FAA3F207F50073A3F5A6731A6025
:1034680007F50073A3F5A6731B68B3FA83F3DBB201
:103478005B09DBB243F00203DBB2022B02D1844BBF
:103488001B6A13E007F50073A3F5A87302221A60FC
:1034980007F50073A3F5A8731B6893FAA3F207F561
:1034A8000073A3F5AA731A60794B5B6A07F500727B
:1034B800A2F5AC720221116007F50072A2F5AC7298
:1034C800126892FAA2F107F50072A2F5AE721160C5
:1034D80007F50072A2F5AE721268B2FA82F2D2B2A1
:1034E80042F04002D2B202F01F02012101FA02F2B8
:1034F8001340002B84D07FE0FDF75AF9C7F8F80194
:103508000BE0FDF755F90246D7F8F831D31A41F226
:103518008832934201D90323C4E207F50073A3F567
:10352800B07302221A6007F50073A3F5B0731B6825
:1035380093FAA3F207F50073A3F5B2731A6007F5BF
:103548000073A3F5B47302221A6007F50073A3F59C
:10355800B4731B6893FAA3F207F50073A3F5B67367
:103568001A6007F50073A3F5B6731B68B3FA83F303
:10357800DBB25B09DBB243F00203DBB2022B02D100
:10358800434B1B6A13E007F50073A3F5B8730222D7
:103598001A6007F50073A3F5B8731B6893FAA3F2D2
:1035A80007F50073A3F5BA731A60394B5B6A07F520
:1035B8000072A2F5BC720221116007F50072A2F533
:1035C800BC72126892FAA2F107F50072A2F5BE72F7
:1035D800116007F50072A2F5BE721268B2FA82F2A3
:1035E800D2B242F04002D2B202F01F02012101FA27
:1035F80002F21340002B84D197F8FF31012B05D13B
:10360800234BDB69224A23F08053D36107F500730B
:10361800A3F5FE731B68DB69002B00F042821C4B8C
:103628005B6803F00C03082B00F0138207F50073A6
:10363800A3F5FE731B68DB69022B40F0628107F576
:103648000073A3F5C0734FF080721A6007F500731A
:10365800A3F5C0731B6893FAA3F207F50073A3F5EB
:10366800C2731A6007F50073A3F5C2731B68B3FA37
:1036780083F3DBB203F1845303F584139B001A46EA
:1036880000231360FDF794F8C7F8F8010CE000BFB9
:1036980000100240FDF78CF80246D7F8F831D31A2B
:1036A800022B01D90323FDE107F50073A3F5C473C9
:1036B8004FF000721A6007F50073A3F5C4731B6816
:1036C80093FAA3F207F50073A3F5C6731A6007F51A
:1036D8000073A3F5C6731B68B3FA83F3DBB25B0907
:1036E800DBB243F00103DBB2012B02D1B04B1B6804
:1036F80027E007F50073A3F5C8734FF000721A604E
:1037080007F50073A3F5C8731B6893FAA3F207F5CE
:103718000073A3F5CA731A6007F50073A3F5CC7399
:103728004FF000721A6007F50073A3F5CC731B689D
:1037380093FAA3F207F50073A3F5CE731A609C4BB6
:103748005B6A07F50072A2F5D0724FF00071116044
:1037580007F50072A2F5D072126892FAA2F107F585
:103768000072A2F5D272116007F50072A2F5D2724A
:103778001268B2FA82F2D2B242F02002D2B202F059
:103788001F02012101FA02F21340002B82D1884B5B
:103798005B6823F4741207F50073A3F5FE731B68C6
:1037A800596A07F50073A3F5FE731B681B6A0B4380
:1037B8007F4913434B6007F50073A3F5D4734FF0AB
:1037C80080721A6007F50073A3F5D4731B6893FA27
:1037D800A3F207F50073A3F5D6731A6007F5007313
:1037E800A3F5D6731B68B3FA83F3DBB203F18453F2
:1037F80003F584139B001A4601231360FCF7D8FFD6
:10380800C7F8F80109E0FCF7D3FF0246D7F8F8310A
:10381800D31A022B01D9032344E107F50073A3F55A
:10382800D8734FF000721A6007F50073A3F5D873C8
:103838001B6893FAA3F207F50073A3F5DA731A600D
:1038480007F50073A3F5DA731B68B3FA83F3DBB2E9
:103858005B09DBB243F00103DBB2012B02D1544B0D
:103868001B6827E007F50073A3F5DC734FF00072BF
:103878001A6007F50073A3F5DC731B6893FAA3F2CB
:1038880007F50073A3F5DE731A6007F50073A3F557
:10389800E0734FF000721A6007F50073A3F5E07348
:1038A8001B6893FAA3F207F50073A3F5E2731A6095
:1038B8003F4B5B6A07F50072A2F5E4724FF00071A6
:1038C800116007F50072A2F5E472126892FAA2F18B
:1038D80007F50072A2F5E672116007F50072A2F50D
:1038E800E6721268B2FA82F2D2B242F02002D2B282
:1038F80002F01F02012101FA02F21340002B82D0CC
:10390800CFE007F50073A3F5E8734FF080721A60F3
:1039180007F50073A3F5E8731B6893FAA3F207F59C
:103928000073A3F5EA731A6007F50073A3F5EA7349
:103938001B68B3FA83F3DBB203F1845303F58413F2
:103948009B001A4600231360FCF732FFC7F8F80102
:1039580009E0FCF72DFF0246D7F8F831D31A022BFD
:1039680001D903239EE007F50073A3F5EC734FF02C
:1039780000721A6007F50073A3F5EC731B6893FADD
:10398800A3F207F50073A3F5EE731A6007F5007349
:10399800A3F5EE731B68B3FA83F3DBB25B09DBB202
:1039A80043F00103DBB2012B04D1014B1B6829E072
:1039B8000010024007F50073A3F5F0734FF0007292
:1039C8001A6007F50073A3F5F0731B6893FAA3F266
:1039D80007F50073A3F5F2731A6007F50073A3F5F2
:1039E800F4734FF000721A6007F50073A3F5F473CF
:1039F8001B6893FAA3F207F50073A3F5F6731A6030
:103A08002B4B5B6A07F50072A2F5F8724FF0007154
:103A1800116007F50072A2F5F872126892FAA2F125
:103A280007F50072A2F5FA72116007F50072A2F5A7
:103A3800FA721268B2FA82F2D2B242F02002D2B21C
:103A480002F01F02012101FA02F21340002B80D17B
:103A580027E007F50073A3F5FE731B68DB69012BEC
:103A680001D101231EE0124B5B68C7F8F431D7F887
:103A7800F43103F4803207F50073A3F5FE731B6875
:103A88001B6A9A420BD1D7F8F43103F4701207F588
:103A98000073A3F5FE731B685B6A9A4201D0012389
:103AA80000E00023184607F50077BD4680BD00BF3B
:103AB8000010024080B59EB000AF786039600023E6
:103AC8007B677B68002B01D1012362E1904B1B6867
:103AD80003F007033A689A4210D98D4B1B6823F00C
:103AE80007028B493B6813430B60894B1B6803F043
:103AF80007033A689A4201D001234AE17B681B68B0
:103B080003F00203002B08D0824B5B6823F0F0021D
:103B18007B689B687F4913434B607B681B6803F095
:103B28000103002B00F0DC807B685B68012B3CD133
:103B38004FF400333B673B6F93FAA3F3FB66FB6ECE
:103B4800B3FA83F3DBB25B09DBB243F00103DBB208
:103B5800012B02D16F4B1B680FE04FF40033BB669B
:103B6800BB6E93FAA3F37B664FF400333B663B6E60
:103B780093FAA3F3FB65674B5B6A4FF40032BA65AF
:103B8800BA6D92FAA2F27A657A6DB2FA82F2D2B27C
:103B980042F02002D2B202F01F02012101FA02F221
:103BA8001340002B7BD10123F3E07B685B68022B79
:103BB8003CD14FF000733B653B6D93FAA3F3FB6474
:103BC800FB6CB3FA83F3DBB25B09DBB243F00103AE
:103BD800DBB2012B02D14F4B1B680FE04FF0007393
:103BE800BB64BB6C93FAA3F37B644FF000733B6434
:103BF8003B6C93FAA3F3FB63464B5B6A4FF000728E
:103C0800BA63BA6B92FAA2F27A637A6BB2FA82F268
:103C1800D2B242F02002D2B202F01F02012101FA10
:103C280002F21340002B3AD10123B2E002233B6396
:103C38003B6B93FAA3F3FB62FB6AB3FA83F3DBB241
:103C48005B09DBB243F00103DBB2012B02D1314B3C
:103C58001B680DE00223BB62BB6A93FAA3F37B6285
:103C680002233B623B6A93FAA3F3FB61294B5B6A2D
:103C78000222BA61BA6992FAA2F27A617A69B2FA50
:103C880082F2D2B242F02002D2B202F01F02012127
:103C980001FA02F21340002B01D1012379E01D4BF8
:103CA8005B6823F003027B685B681A4913434B6027
:103CB800FCF77EFD78670AE0FCF77AFD02467B6F29
:103CC800D31A41F28832934201D9032361E0114BA0
:103CD8005B6803F00C027B685B689B009A42EBD13F
:103CE8000B4B1B6803F007033A689A4214D2084B3F
:103CF8001B6823F0070206493B6813430B60044B1B
:103D08001B6803F007033A689A4205D0012340E094
:103D180000200240001002407B681B6803F0040387
:103D2800002B08D01D4B5B6823F4E0627B68DB68DE
:103D38001A4913434B607B681B6803F00803002B88
:103D480009D0164B5B6823F460527B681B69DB0063
:103D5800124913434B6000F029F801460F4B5B688A
:103D680003F0F003F0223A613A6992FAA2F2FA609B
:103D7800FA68B2FA82F2D2B2D340094AD35C21FA85
:103D880003F3084A1360084B1B681846FCF7CCFC81
:103D9800002318467837BD4680BD00BF001002409A
:103DA80018410008140000201800002080B487B0D3
:103DB80000AF0023FB600023BB6000237B6100236E
:103DC8007B6000233B611E4B5B68FB60FB6803F074
:103DD8000C03042B02D0082B03D026E0194B3B61BF
:103DE80026E0FB689B0C03F00F03174AD35C7B604B
:103DF800134BDB6A03F00F03144AD35CBB60FB6808
:103E080003F48033002B08D00E4ABB68B2FBF3F2F0
:103E18007B6802FB03F37B6104E07B680C4A02FBCE
:103E280003F37B617B693B6102E0064B3B6100BFAA
:103E38003B6918461C37BD465DF8047B704700BFD8
:103E48000010024000127A0028410008384100089A
:103E580000093D0080B592B000AF786000233B6454
:103E68000023FB63002387F847307B681B6803F453
:103E78008033002B00F0CD80864BDB6903F0805344
:103E8800002B0ED1834BDB69824A43F08053D36108
:103E9800804BDB6903F08053BB60BB68012387F864
:103EA80047307D4B1B6803F48073002B18D17A4B85
:103EB8001B68794A43F480731360FCF779FC386413
:103EC80008E0FCF775FC02463B6CD31A642B01D959
:103ED8000323DBE0704B1B6803F48073002BF0D0E6
:103EE8006C4B1B6A03F44073FB63FB6B002B7DD0A8
:103EF8007B685B6803F44073FA6B9A4276D0654B33
:103F08001B6A23F44073FB634FF480333B633B6BC2
:103F180093FAA3F3FB62FB6AB3FA83F3DBB21A46A4
:103F28005E4B13449B001A46012313604FF4803301
:103F3800BB63BB6B93FAA3F37B637B6BB3FA83F32B
:103F4800DBB21A46554B13449B001A4600231360F4
:103F5800504AFB6B1362FB6B03F00103002B45D047
:103F6800FCF726FC38640AE0FCF722FC02463B6CAE
:103F7800D31A41F28832934201D9032386E00223FF
:103F8800BB62BB6A93FAA3F37B6202233B623B6A80
:103F980093FAA3F3FB61FB69B3FA83F3DBB25B0922
:103FA800DBB243F00203DBB2022B02D1394B1B6AAE
:103FB80007E00223BB61BB6993FAA3F37B61354B2E
:103FC8005B6A02223A613A6992FAA2F2FA60FA68E6
:103FD800B2FA82F2D2B242F04002D2B202F01F022A
:103FE800012101FA02F21340002BBDD0294B1B6AB4
:103FF80023F440727B685B68264913430B6297F889
:104008004730012B05D1234BDB69224A23F080532B
:10401800D3617B681B6803F00103002B08D01D4B9C
:104028001B6B23F003027B689B681A4913430B63DD
:104038007B681B6803F02003002B08D0154B1B6B13
:1040480023F010027B68DB68124913430B637B681B
:104058001B6803F08003002B08D00E4BDB6A23F4A7
:10406800F8727B681B690B491343CB627B681B683A
:1040780003F48053002B08D0064B1B6B23F480728B
:104088007B685B69034913430B6300231846483771
:10409800BD4680BD001002400070004000819010B5
:1040A80002440346934200D1704703F8011BF9E725
:1040B80070B50D4D0D4C641BA4100026A64209D105
:1040C8000B4D0C4C00F018F8641BA4100026A642F7
:1040D80005D170BD55F8043B98470136EEE755F811
:1040E800043B98470136F2E7484100084841000878
:1040F800484100084C410008F8B500BFF8BC08BCAE
:104108009E467047F8B500BFF8BC08BC9E4670478D
:10411800000000000000000001020304060708096F
:1041280002030405060708090A0B0C0D0E0F1010F0
:104138000102030405060708090A0B0C0D0E0F10EF
:04414800AD010008BD
:04414C0089010008DD
:104150000A050B060C070D080E0F000040424446EE
:10416000484A4C4E00127A00100000000100000086
:04000005080006B138
:00000001FF
